:1000000045C1000060C100005EC100005CC100008D
:100010005AC1000058C1000056C1000054C1000080
:1000200052C100000C94DF0D4EC100004CC1000015
:100030004AC1000048C1000046C1000044C10000A0
:1000400042C1000040C100003EC100003CC10000B0
:100050003AC1000038C1000036C100000C940B18F2
:1000600032C1000030C100002EC100002CC10000D0
:100070002AC1000028C1000026C1000024C10000E0
:1000800022C1000020C100001EC100001CC10000F0
:100090001AC1000018C1000016C1000014C1000000
:1000A00012C1000010C100000EC1000000000000DD
:1000B0000000005F00000007000700147F147F1499
:1000C000242A7F2A122313086462364955225000DD
:1000D00005030000001C2241000041221C001408FE
:1000E0003E081408083E08080050300000080808C0
:1000F0000808006060000020100804023E514945D5
:100100003E00427F400042615149462141454B310A
:100110001814127F1027454545393C4A494930019A
:10012000710905033649494936064949291E0036F1
:100130003600000056360000081422410014141442
:100140001414004122140802015109063249794170
:100150003E7E1111117E7F494949363E414141227F
:100160007F4141221C7F494949417F090909013EDC
:100170004149497A7F0808087F00417F41002040BB
:10018000413F017F081422417F404040407F020CE4
:10019000027F7F0408107F3E4141413E7F090909EB
:1001A000063E4151215E7F09192946464949493198
:1001B00001017F01013F4040403F1F2040201F3F81
:1001C0004038403F63140814630708700807615102
:1001D000494543007F41410002040810200041418D
:1001E0007F0004020102044040404040000102043C
:1001F0000020545454787F484444383844444420C0
:10020000384444487F3854545418087E0901020C7D
:100210005252523E7F0804047800447D4000204042
:10022000443D007F1028440000417F40007C0418BA
:1002300004787C0804047838444444387C1414144A
:1002400008081414187C7C080404084854545420EA
:10025000043F4440203C4040207C1C2040201C3C6B
:100260004030403C44281028440C5050503C4464DA
:10027000544C44000836410000007F000000413625
:1002800008001008081008784641467811241FBE5F
:10029000CFEFDAE0DEBFCDBF12E0A0E0B1E0ECEEE0
:1002A000F7E402C005900D92A431B107D9F715E02B
:1002B000A4E1B2E001C01D92AD31B107E1F70E94A7
:1002C0005E190C94F4239CCEA0E2B0E0EAE6F1E0E3
:1002D0000C947B2069837A838B839C832D833E835C
:1002E0004F835887CE010196BE01675F7F4F61D271
:1002F000CE010596BE016F5E7F4F5BD2998592302D
:1003000088F089898230C8F0943019F4823051F431
:1003100004C0843029F4923081F488E092E0C6C0B1
:10032000923049F420E09A858A89981321E02A873F
:10033000CE010996BBC0823049F420E09A858A89B3
:10034000981321E02A8BCE014196B0C02D843E84C3
:100350004F8458886D887E888F88988CEE24FF247F
:100360008701AA24BB24650140E050E060E070E012
:10037000E0E0F0E0C10181709070892BE9F0E60CBB
:10038000F71C081D191D9A01AB012A0D3B1D4C1DC0
:100390005D1D80E090E0A0E0B0E0E614F704080501
:1003A000190520F481E090E0A0E0B0E0BA01A901D5
:1003B000480F591F6A1F7B1FAA0CBB1CCC1CDD1CDD
:1003C00097FE08C081E090E0A0E0B0E0A82AB92A3A
:1003D000CA2ADB2A3196E032F10549F0660C771C17
:1003E000881C991C5694479437942794C3CFFA8558
:1003F000EA892B893C898B859C85280F391F2E5FC4
:100400003F4F17C0CA0181709070892B61F016951B
:100410000795F794E79480E090E0A0E0B0E8E82A40
:10042000F92A0A2B1B2B76956795579547952F5FD1
:100430003F4F77FDE7CF0CC0440F551F661F771F56
:1004400017FD4160EE0CFF1C001F111F21503040B2
:10045000403090E0590790E0690790E4790760F335
:100460002B8F3C8FDB01CA018F779070A070B0702A
:1004700080349105A105B10561F447FD0AC0E1147E
:10048000F1040105110529F0405C5F4F6F4F7F4F6C
:1004900040781A8EFE1711F081E08A8F4D8F5E8FA3
:1004A0006F8F78A383E0898FCE014996ADD0A09657
:1004B000E2E10C949720A8E1B0E0E1E6F2E00C94D0
:1004C000832069837A838B839C832D833E834F8330
:1004D0005887B9E0EB2EF12CEC0EFD1ECE010196F3
:1004E000B70167D18E010F5E1F4FCE010596B8018F
:1004F00060D12985223008F47EC03989323010F469
:10050000B8017CC08A859A8989278A87243011F0AE
:10051000223031F4231709F06EC068E072E06EC03B
:10052000343039F41D861E861F86188A1C861B8669
:1005300004C0323021F484E08987B7015FC02B8585
:100540003C858B899C89281B390B3C872B87ED8444
:10055000FE840F851889AD88BE88CF88D88CEA14B0
:10056000FB040C051D0540F4EE0CFF1C001F111FC1
:10057000215030403C872B8720E030E040E050E0C5
:1005800080E090E0A0E0B0E460E070E0EA14FB04FA
:100590000C051D0540F0282B392B4A2B5B2BEA1844
:1005A000FB080C091D09B695A79597958795EE0C44
:1005B000FF1C001F111F6F5F7F4F6F31710531F7F7
:1005C000DA01C9018F779070A070B0708034910506
:1005D000A105B10561F427FD0AC0E114F10401058C
:1005E000110529F0205C3F4F4F4F5F4F20782D873A
:1005F0003E874F87588BBE01675F7F4FCB0104D08A
:100600006896EAE00C949F20DF92EF92FF920F939E
:100610001F93FC01E480F58006811781D1808081E1
:10062000823048F480E090E0A0E1B0E0E82AF92AC6
:100630000A2B1B2BA5C0843009F49FC0823021F403
:10064000EE24FF24870105C0E114F1040105110522
:1006500019F4E0E0F0E096C0628173819FEF6238A8
:1006600079070CF05BC022E83FEF261B370B2A31DD
:1006700031052CF020E030E040E050E02AC0B80125
:10068000A701022E04C076956795579547950A9461
:10069000D2F781E090E0A0E0B0E004C0880F991F9D
:1006A000AA1FBB1F2A95D2F70197A109B1098E2174
:1006B0009F21A023B1230097A105B10521F081E07E
:1006C00090E0A0E0B0E09A01AB01282B392B4A2B37
:1006D0005B2BDA01C9018F779070A070B070803405
:1006E0009105A105B10539F427FF09C0205C3F4FF2
:1006F0004F4F5F4F04C0215C3F4F4F4F5F4FE0E0D3
:10070000F0E02030A0E03A07A0E04A07A0E45A0752
:1007100010F0E1E0F0E079018A0127C0603871054E
:1007200064F5FB01E158FF4FD801C7018F77907046
:10073000A070B07080349105A105B10539F4E7FED1
:100740000DC080E490E0A0E0B0E004C08FE390E052
:10075000A0E0B0E0E80EF91E0A1F1B1F17FF05C03E
:1007600016950795F794E794319687E016950795C7
:10077000F794E7948A95D1F705C0EE24FF2487010A
:10078000EFEFF0E06E2F679566276795902F9F77C4
:10079000D794DD24D7948E2F8695492F462B582F3A
:1007A0005D29B701CA011F910F91FF90EF90DF9073
:1007B0000895FC01DB01408151812281622F6F7716
:1007C00070E0221F2227221F9381892F880F822BFE
:1007D000282F30E0991F9927991F11969C93119704
:1007E00021153105A9F5411551056105710511F472
:1007F00082E037C082E89FEF13969C938E93129706
:100800009A01AB0167E0220F331F441F551F6A9501
:10081000D1F783E08C930DC0220F331F441F551F67
:1008200012968D919C911397019713969C938E939A
:100830001297203080E0380780E0480780E45807AE
:1008400058F314962D933D934D935C931797089509
:100850002F3F310579F4411551056105710519F4F2
:1008600084E08C93089564FF03C081E08C9312C0F0
:100870001C9210C02F57304013963C932E93129722
:1008800083E08C9387E0440F551F661F771F8A957E
:10089000D1F7706414964D935D936D937C93179785
:1008A000089584B58D7F84BD85B5877F85BD85B569
:1008B000856085BD85B58D7F85BDEEE6F0E08081E4
:1008C0008160808378940895EBE6F0E08081816018
:1008D0008083808182608083E8E6F0E080818160AF
:1008E0008083E9E6F0E080818160808378940895D8
:1008F000EF92FF920F931F93CF93DF93EC016881E8
:1009000079818A819B812D853E854F8558890E94FA
:10091000211B7B018C01688379838A839B836C8193
:100920007D818E819F8129893A894B895C890E94CA
:10093000211B6C837D838E839F83288564E570E013
:10094000621B7109882777FD8095982F0E94BC1B38
:100950009B01AC01C801B7010E946C1C882364F0A4
:10096000C801B70120E030E040E85FE30E94201BAF
:10097000688379838A839B83E880F9800A811B815D
:10098000C801B70120E030E040E751E40E94851B38
:10099000882364F4C801B70120E030E040E85FE359
:1009A0000E94211B688379838A839B83EC80FD806E
:1009B0000E811F81298560E370E0621B7109882721
:1009C00077FD8095982F0E94BC1B9B01AC01C8014C
:1009D000B7010E946C1C882364F0C801B70120E0B5
:1009E00030E040E85FE30E94201B6C837D838E83B0
:1009F0009F83EC80FD800E811F81C801B70120E03C
:100A000030E040E050E00E94851B882364F4C80178
:100A1000B70120E030E040E85FE30E94211B6C83D7
:100A20007D838E839F83688179818A819B8120E089
:100A300030E040E85FEB0E94851B181644F080E030
:100A400090E0A8E4B2EC88839983AA83BB836C818D
:100A50007D818E819F8120E030E040E85FEB0E9445
:100A6000851B181644F080E090E0A8E4B2EC8C837B
:100A70009D83AE83BF83DF91CF911F910F91FF9034
:100A8000EF900895AF92BF92CF92DF92EF92FF92D4
:100A90000F931F93CF93DF93EC01AC80BD80CE808A
:100AA000DF80E0901B01F0901C0100911D0110916E
:100AB0001E01C601B50120E030E040E85FE30E947E
:100AC000211BA80197010E94851B882309F042C0C1
:100AD000E880F9800A811B8120911701309118016B
:100AE0004091190150911A01C801B7010E946C1C74
:100AF000882384F120911F01309120014091210130
:100B000050912201C801B7010E94851B181614F1EB
:100B1000E988FA880B891C89C801B70120E030E018
:100B200040E050E00E946C1C181654F0C801B70158
:100B300020E030E040E050E00E94851B882354F420
:100B4000C601B501A80197010E94201B6C837D831B
:100B50008E839F83A880B980CA80DB80E0902701C4
:100B6000F09028010091290110912A01C601B501D8
:100B700020E030E040E85FE30E94211BA8019701DC
:100B80000E94851B882309F042C0EC80FD800E8105
:100B90001F8120912B0130912C0140912D0150910A
:100BA0002E01C801B7010E946C1C882384F120919A
:100BB0003301309134014091350150913601C80123
:100BC000B7010E94851B181614F1ED84FE840F8571
:100BD0001889C801B70120E030E040E050E00E94F1
:100BE0006C1C181654F0C801B70120E030E040E05A
:100BF00050E00E94851B882354F4C601B501A8016A
:100C000097010E94201B688379838A839B83AC8031
:100C1000BD80CE80DF80E0903B01F0903C010091F0
:100C20003D0110913E01C601B50120E030E040E8F1
:100C30005FE30E94211BA80197010E94851B882366
:100C400009F042C0E880F9800A811B8120913701B8
:100C5000309138014091390150913A01C801B701F2
:100C60000E946C1C882384F120913F013091400147
:100C70004091410150914201C801B7010E94851B7A
:100C8000181614F1E988FA880B891C89C801B70184
:100C900020E030E040E050E00E946C1C181654F058
:100CA000C801B70120E030E040E050E00E94851B21
:100CB000882354F4C601B501A80197010E94201BA6
:100CC0006C837D838E839F83AC80BD80CE80DF80EC
:100CD000E0904B01F0904C0100914D0110914E01BC
:100CE000C601B50120E030E040E85FE30E94211B2F
:100CF000A80197010E94851B882309F042C0E88063
:100D0000F9800A811B81209147013091480140916F
:100D1000490150914A01C801B7010E946C1C882307
:100D200084F120914F013091500140915101509137
:100D30005201C801B7010E94851B181614F1E988F9
:100D4000FA880B891C89C801B70120E030E040E037
:100D500050E00E946C1C181654F0C801B70120E046
:100D600030E040E050E00E94851B882354F4C60127
:100D7000B501A80197010E94201B6C837D838E839F
:100D80009F83AC80BD80CE80DF80E0905B01F090DF
:100D90005C0100915D0110915E01C601B50120E08A
:100DA00030E040E85FE30E94211BA80197010E9408
:100DB000851B882309F042C0E880F9800A811B81E5
:100DC00020915701309158014091590150915A0199
:100DD000C801B7010E946C1C882384F120915F0137
:100DE000309160014091610150916201C801B701E9
:100DF0000E94851B181614F1E988FA880B891C8952
:100E0000C801B70120E030E040E050E00E946C1CD7
:100E1000181654F0C801B70120E030E040E050E07F
:100E20000E94851B882354F4C601B501A8019701CF
:100E30000E94201B6C837D838E839F83AC80BD804A
:100E4000CE80DF80E0906B01F0906C0100916D012D
:100E500010916E01C601B50120E030E040E85FE38B
:100E60000E94211BA80197010E94851B882309F07D
:100E700042C0E880F9800A811B812091670130918E
:100E800068014091690150916A01C801B7010E944F
:100E90006C1C882384F120916F0130917001409186
:100EA000710150917201C801B7010E94851B18168B
:100EB00014F1E988FA880B891C89C801B70120E080
:100EC00030E040E050E00E946C1C181654F0C8015D
:100ED000B70120E030E040E050E00E94851B88230D
:100EE00054F4C601B501A80197010E94201B6C8330
:100EF0007D838E839F83AC80BD80CE80DF80E09039
:100F00007B01F0907C0100917D0110917E01C60172
:100F1000B50120E030E040E85FE30E94211BA8011A
:100F200097010E94851B882309F042C0E880F98060
:100F30000A811B81209177013091780140917901DC
:100F400050917A01C801B7010E946C1C882384F17A
:100F500020917F0130918001409181015091820167
:100F6000C801B7010E94851B181614F1E988FA8898
:100F70000B891C89C801B70120E030E040E050E057
:100F80000E946C1C181654F0C801B70120E030E034
:100F900040E050E00E94851B882354F4C601B5014F
:100FA000A80197010E94201B6C837D838E839F8301
:100FB000AC80BD80CE80DF80E0908B01F0908C0112
:100FC00000918D0110918E01C601B50120E030E045
:100FD00040E85FE30E94211BA80197010E94851B46
:100FE000882309F049C0E880F9800A811B8120919B
:100FF0008701309188014091890150918A01C8018F
:10100000B7010E946C1C8823BCF120918F013091A4
:1010100090014091910150919201C801B7010E9445
:10102000851B18164CF1E988FA880B891C89C801C0
:10103000B70120E030E040E050E00E946C1C181640
:101040003CF4C601B501A80197010E94201B10C005
:10105000C801B70120E030E040E050E00E94851B6D
:10106000882354F4C601B501A80197010E94211BF1
:101070006C837D838E839F83DF91CF911F910F912E
:10108000FF90EF90DF90CF90BF90AF9008956F9258
:101090007F928F929F92AF92BF92CF92DF92EF9208
:1010A000FF920F931F93CF93DF93C4E6D2E06C803F
:1010B0007D808E809F80E0901B01F0901C0100914C
:1010C0001D0110911E01C401B30120E030E040E891
:1010D0005FE30E94211B5B016C01C801B70120E0A6
:1010E00030E040E85FE30E94201B9B01AC01C60199
:1010F000B5010E946C1C18160CF03FC0E0901B015B
:10110000F0901C0100911D0110911E01C401B3015A
:1011100020E030E040E85FE30E94201BA801970137
:101120000E94851B88234CF5E880F9800A811B8189
:1011300020911701309118014091190150911A0125
:10114000C801B7010E946C1C8823BCF020911F01CC
:10115000309120014091210150912201C801B70135
:101160000E94851B18164CF089899A89AB89BC8925
:10117000B058898B9A8BAB8BBC8B6C807D808E80BA
:101180009F80E0902701F0902801009129011091A3
:101190002A01C401B30120E030E040E85FE30E948F
:1011A000211B5B016C01C801B70120E030E040E881
:1011B0005FE30E94201B9B01AC01C601B5010E94A8
:1011C0006C1C18160CF03BC0E0902701F090280131
:1011D0000091290110912A01C401B30120E030E0FF
:1011E00040E85FE30E94201BA80197010E94851B35
:1011F00088232CF520912B0130912C0140912D0159
:1012000050912E01C401B3010E946C1C8823BCF0D4
:1012100020913301309134014091350150913601D4
:10122000C401B3010E94851B18164CF08D859E8564
:10123000AF85B889B0588D879E87AF87B88B6C8093
:101240007D808E809F80E0903B01F0903C0100917A
:101250003D0110913E01C401B30120E030E040E8BF
:101260005FE30E94211B5B016C01C801B70120E014
:1012700030E040E85FE30E94201B9B01AC01C60107
:10128000B5010E946C1C18160CF03FC0E0903B01A9
:10129000F0903C0100913D0110913E01C401B30169
:1012A00020E030E040E85FE30E94201BA8019701A6
:1012B0000E94851B88234CF5E880F9800A811B81F8
:1012C00020913701309138014091390150913A0114
:1012D000C801B7010E946C1C8823BCF020913F011B
:1012E000309140014091410150914201C801B70144
:1012F0000E94851B18164CF089899A89AB89BC8994
:10130000B058898B9A8BAB8BBC8B6C807D808E8028
:101310009F80E0904B01F0904C0100914D011091A5
:101320004E01C401B30120E030E040E85FE30E94D9
:10133000211B5B016C01C801B70120E030E040E8EF
:101340005FE30E94201B9B01AC01C601B5010E9416
:101350006C1C18160CF03FC0E0904B01F0904C0153
:1013600000914D0110914E01C401B30120E030E025
:1013700040E85FE30E94201BA80197010E94851BA3
:1013800088234CF5E880F9800A811B812091470170
:10139000309148014091490150914A01C801B7017B
:1013A0000E946C1C8823BCF020914F0130915001A9
:1013B0004091510150915201C801B7010E94851B13
:1013C00018164CF089899A89AB89BC89B058898BE9
:1013D0009A8BAB8BBC8B6C807D808E809F80E090E5
:1013E0005B01F0905C0100915D0110915E01C40110
:1013F000B30120E030E040E85FE30E94211B5B0185
:101400006C01C801B70120E030E040E85FE30E94D2
:10141000201B9B01AC01C601B5010E946C1C181673
:101420000CF03FC0E0905B01F0905C0100915D0129
:1014300010915E01C401B30120E030E040E85FE3B9
:101440000E94201BA80197010E94851B88234CF550
:10145000E880F9800A811B81209157013091580161
:101460004091590150915A01C801B7010E946C1C6A
:101470008823BCF020915F013091600140916101AF
:1014800050916201C801B7010E94851B18164CF0EB
:1014900089899A89AB89BC89B058898B9A8BAB8B27
:1014A000BC8B6C807D808E809F80E0906B01F09083
:1014B0006C0100916D0110916E01C401B30120E037
:1014C00030E040E85FE30E94211B5B016C01C80132
:1014D000B70120E030E040E85FE30E94201B9B0161
:1014E000AC01C601B5010E946C1C18160CF03FC07F
:1014F000E0906B01F0906C0100916D0110916E0114
:10150000C401B30120E030E040E85FE30E94201B0B
:10151000A80197010E94851B88234CF5E880F9807B
:101520000A811B8120916701309168014091690116
:1015300050916A01C801B7010E946C1C8823BCF05D
:1015400020916F01309170014091710150917201B1
:10155000C801B7010E94851B18164CF089899A8929
:10156000AB89BC89B058898B9A8BAB8BBC8B6C8058
:101570007D808E809F80E0907B01F0907C010091C7
:101580007D0110917E01C401B30120E030E040E80C
:101590005FE30E94211B5B016C01C801B70120E0E1
:1015A00030E040E85FE30E94201B9B01AC01C601D4
:1015B000B5010E946C1C18160CF04BC0E0907B012A
:1015C000F0907C0100917D0110917E01C401B30176
:1015D00020E030E040E85FE30E94201B5B016C01EB
:1015E000C801B70120E030E040E85FE30E94211B22
:1015F0009B01AC01C601B5010E94851B88234CF5F7
:10160000E880F9800A811B8120917701309178016F
:101610004091790150917A01C801B7010E946C1C78
:101620008823BCF020917F0130918001409181019D
:1016300050918201C801B7010E94851B18164CF019
:1016400089899A89AB89BC89B058898B9A8BAB8B75
:10165000BC8B6C807D808E809F80E0908B01F090B1
:101660008C0100918D0110918E01C401B30120E025
:1016700030E040E85FE30E94211B5B016C01C80180
:10168000B70120E030E040E85FE30E94201B9B01AF
:10169000AC01C601B5010E946C1C18160CF03FC0CD
:1016A000E0908B01F0908C0100918D0110918E01E2
:1016B000C401B30120E030E040E85FE30E94201B5A
:1016C000A80197010E94851B88234CF5E880F980CA
:1016D0000A811B8120918701309188014091890105
:1016E00050918A01C801B7010E946C1C8823BCF08C
:1016F00020918F0130919001409191015091920180
:10170000C801B7010E94851B18164CF089899A8977
:10171000AB89BC89B058898B9A8BAB8BBC8B659697
:1017200083E0CC30D80709F0C2CCDF91CF911F9174
:101730000F91FF90EF90DF90CF90BF90AF909F9070
:101740008F907F906F900895CF92DF92EF92FF92EB
:101750000F931F93CF93DF93EC01C090A501D0901E
:10176000A60138C0B601882777FD8095982F0E9482
:10177000BC1B9B01AC016C817D818E819F810E948D
:10178000851B882321F5E880F9800A811B816091FF
:10179000A7017091A8016F5F7F4F882777FD809523
:1017A000982F0E94BC1B9B01AC01C801B7010E948D
:1017B000851B882361F4C801B70120E030E040EACE
:1017C00050E40E94201B688379838A839B8308945A
:1017D000C11CD11C8091A9019091AA01C816D906FB
:1017E0000CF2C090A501D090A60138C0B6018827A0
:1017F00077FD8095982F0E94BC1B9B01AC016C81EA
:101800007D818E819F810E94851B882321F5E88040
:10181000F9800A811B816091A3017091A40161503C
:101820007040882777FD8095982F0E94BC1B9B01F4
:10183000AC01C801B7010E94851B882361F4C8016F
:10184000B70120E030E040EA50E40E94211B6883A9
:1018500079838A839B830894C11CD11C8091A90140
:101860009091AA01C816D9060CF2C090A301D0909D
:10187000A40138C0B601882777FD8095982F0E9473
:10188000BC1B9B01AC01688179818A819B810E948C
:10189000851B882321F5EC80FD800E811F816091DE
:1018A000A5017091A60161507040882777FD809551
:1018B000982F0E94BC1B9B01AC01C801B7010E947C
:1018C000851B882361F4C801B70120E030E040EABD
:1018D00050E40E94211B6C837D838E839F83089438
:1018E000C11CD11C8091A7019091A801C816D906EE
:1018F0000CF2C090A301D090A40138C0B601882793
:1019000077FD8095982F0E94BC1B9B01AC016881DC
:1019100079818A819B810E94851B882321F5EC8037
:10192000FD800E811F816091A9017091AA016F5FF6
:101930007F4F882777FD8095982F0E94BC1B9B01C5
:10194000AC01C801B7010E94851B882361F4C8015E
:10195000B70120E030E040EA50E40E94201B6C8395
:101960007D838E839F830894C11CD11C8091A70125
:101970009091A801C816D9060CF2E880F9800A8176
:101980001B816091A3017091A401882777FD809548
:10199000982F0E94BC1B9B01AC01C801B7010E949B
:1019A0006C1C18160CF070C06091A7017091A80112
:1019B000882777FD8095982F0E94BC1B9B01AC0166
:1019C000C801B7010E94851B88230CF05DC0EC8024
:1019D000FD800E811F816091A5017091A60161506B
:1019E0007040882777FD8095982F0E94BC1B9B0133
:1019F000AC01C801B7010E946C1C1816A4F46091D8
:101A0000A5017091A6016F5F7F4F882777FD8095B4
:101A1000982F0E94BC1B9B01AC01C801B7010E941A
:101A2000851B87FD28C06091A9017091AA016150B2
:101A30007040882777FD8095982F0E94BC1B9B01E2
:101A4000AC01C801B7010E946C1C1816ECF460913F
:101A5000A9017091AA016F5F7F4F882777FD80955C
:101A6000982F0E94BC1B9B01AC01C801B7010E94CA
:101A7000851B88234CF489899A89AB89BC89B05825
:101A8000898B9A8BAB8BBC8BEC80FD800E811F8188
:101A90006091A5017091A601882777FD8095982F08
:101AA0000E94BC1B9B01AC01C801B7010E946C1CC9
:101AB00018160CF070C06091A9017091AA018827D6
:101AC00077FD8095982F0E94BC1B9B01AC01C8013B
:101AD000B7010E94851B88230CF05DC0E880F98067
:101AE0000A811B816091A3017091A4016150704033
:101AF000882777FD8095982F0E94BC1B9B01AC0125
:101B0000C801B7010E946C1C1816A4F46091A301CF
:101B10007091A4016F5F7F4F882777FD8095982F84
:101B20000E94BC1B9B01AC01C801B7010E94851B30
:101B300087FD28C06091A7017091A8016150704095
:101B4000882777FD8095982F0E94BC1B9B01AC01D4
:101B5000C801B7010E946C1C1816ECF46091A70133
:101B60007091A8016F5F7F4F882777FD8095982F30
:101B70000E94BC1B9B01AC01C801B7010E94851BE0
:101B800088234CF48D859E85AF85B889B0588D87A4
:101B90009E87AF87B88BDF91CF911F910F91FF90F8
:101BA000EF90DF90CF90089580919B0190919C01E0
:101BB000181619061CF087E492E0C6CD08951F920E
:101BC0000F920FB60F921124EF92FF920F931F9373
:101BD0002F933F934F935F936F937F938F939F9335
:101BE000AF93BF93EF93FF938091200290912102D6
:101BF000019690932102809320028091240290917B
:101C00002502892B09F032C180912E0290912F027A
:101C1000892BC9F5189B06C081E090E090933102B2
:101C20008093300283B1869580FF2BC0809106029D
:101C300090910702019769F482E090E09093070287
:101C40008093060280E262E244E10E94921E8AE2F0
:101C500012C08091060290910702029791F481E0F0
:101C600090E090930702809306028AE262E244E1E8
:101C70000E94921E80E260E044E10E94921E0E9457
:101C8000F71E0E94F71E80912E0290912F02813044
:101C9000910509F0EBC01092230210922202189BCA
:101CA00004C0909323028093220283B1869580FF23
:101CB0000FC08091220290912302892B19F083E0BA
:101CC00090E002C082E090E0909323028093220291
:101CD00080912202909123020197E1F5E090540255
:101CE000F09055020091560210915702C801B701B9
:101CF00020E030E040E85FE30E94851B882309F480
:101D00005DC0C801B70120E030E040E85FEB0E9411
:101D1000851B8823C1F1E0905802F0905902009190
:101D20005A0210915B02C801B70120E030E040E8A0
:101D30005FE30E94851B882309F472C0C801B701C4
:101D400020E030E040E85FEB0E94851B882309F02B
:101D50007FC057C08091220290912302029709F020
:101D600077C0E0905402F090550200915602109115
:101D70005702C801B70120E030E040E85FE30E946D
:101D8000851B882389F480E090E0A0E0B0E0809398
:101D9000540290935502A0935602B093570280E0EC
:101DA00090E0A0E8BFE34CC0C801B70120E030E0FC
:101DB00040E85FEB0E94851B882389F480E090E077
:101DC000A0E0B0E08093540290935502A093560295
:101DD000B093570280E090E0A0E8BFEB31C0E09004
:101DE0005802F090590200915A0210915B02C8010A
:101DF000B70120E030E040E85FE30E94851B8823C4
:101E000029F480E090E0A0E8BFEB0EC0C801B70164
:101E100020E030E040E85FEB0E94851B8823C1F49E
:101E200080E090E0A0E8BFE38093540290935502D5
:101E3000A0935602B093570280E090E0A0E0B0E09B
:101E40008093580290935902A0935A02B0935B0278
:101E5000189B0AC083B1869580FF06C08AE090E097
:101E600090939C0180939B010E94F71EFF91EF913C
:101E7000BF91AF919F918F917F916F915F914F91A2
:101E80003F912F911F910F91FF90EF900F900FBEF8
:101E90000F901F9018952F923F924F925F926F92E2
:101EA0007F928F929F92AF92BF92CF92DF92EF92EA
:101EB000FF920F931F93DF93CF93CDB7DEB7A09719
:101EC0000FB6F894DEBF0FBECDBF609117017091C1
:101ED00018018091190190911A01E0901B01F09076
:101EE0001C0100911D0110911E01A0901F01B090D6
:101EF0002001C0902101D090220120902301309038
:101F0000240140902501509026010E948E1B698378
:101F10007A838B839C83C801B7010E948E1B3B018F
:101F20004C01C601B5010E948E1B6B017C01C201F0
:101F3000B1010E948E1B8B019C018981662D4C2D65
:101F4000202F0E94AB1C6091270170912801809185
:101F5000290190912A01E0902B01F0902C01009131
:101F60002D0110912E01A0902F01B0903001C09052
:101F70003101D090320120903301309034014090F3
:101F80003501509036010E948E1B6D837E838F83B6
:101F90009887C801B7010E948E1B3B014C01C60106
:101FA000B5010E948E1B6B017C01C201B1010E9430
:101FB0008E1B8B019C018D81662D4C2D202F0E9444
:101FC000AB1C60913701709138018091390190917B
:101FD0003A01E0903B01F0903C0100913D011091ED
:101FE0003E01A0903F01B0904001C0904101D090CF
:101FF00042012090430130904401409045015090AF
:1020000046010E948E1B69877A878B879C87C8014F
:10201000B7010E948E1B3B014C01C601B5010E9415
:102020008E1B6B017C01C201B1010E948E1B8B01D2
:102030009C018985662D4C2D202F0E94AB1C609140
:102040004701709148018091490190914A01E090C7
:102050004B01F0904C0100914D0110914E01A09068
:102060004F01B0905001C0905101D090520120908A
:1020700053013090540140905501509056010E94F8
:102080008E1B6D877E878F87988BC801B7010E9452
:102090008E1B3B014C01C601B5010E948E1B6B01DA
:1020A0007C01C201B1010E948E1B8B019C018D85B8
:1020B000662D4C2D202F0E94AB1C60915701709112
:1020C00058018091590190915A01E0905B01F09084
:1020D0005C0100915D0110915E01A0905F01B090E4
:1020E0006001C0906101D090620120906301309046
:1020F000640140906501509066010E948E1B698BBF
:102100007A8B8B8B9C8BC801B7010E948E1B3B0185
:102110004C01C601B5010E948E1B6B017C01C201FE
:10212000B1010E948E1B8B019C018989662D4C2D6B
:10213000202F0E94AB1C6091670170916801809113
:10214000690190916A01E0906B01F0906C0100913F
:102150006D0110916E01A0906F01B0907001C09060
:102160007101D09072012090730130907401409001
:102170007501509076010E948E1B6D8B7E8B8F8B2C
:10218000988FC801B7010E948E1B3B014C01C6010C
:10219000B5010E948E1B6B017C01C201B1010E943E
:1021A0008E1B8B019C018D89662D4C2D202F0E944A
:1021B000AB1C6091770170917801809179019091C9
:1021C0007A01E0907B01F0907C0100917D011091FB
:1021D0007E01A0907F01B0908001C0908101D090DD
:1021E00082012090830130908401409085015090BD
:1021F00086010E948E1B698F7A8F8B8F9C8FC801FE
:10220000B7010E948E1B3B014C01C601B5010E9423
:102210008E1B6B017C01C201B1010E948E1B8B01E0
:102220009C01898D662D4C2D202F0E94AB1C609146
:102230008701709188018091890190918A01E090D5
:102240008B01F0908C0100918D0110918E01A09076
:102250008F01B0909001C0909101D0909201209098
:1022600093013090940140909501509096010E9406
:102270008E1B6D8F7E8F8F8F98A3C801B7010E9430
:102280008E1B3B014C01C601B5010E948E1B6B01E8
:102290007C01C201B1010E948E1B8B019C018D8DBE
:1022A000662D4C2D202F0E94AB1CA0960FB6F894E3
:1022B000DEBF0FBECDBFCF91DF911F910F91FF9079
:1022C000EF90DF90CF90BF90AF909F908F907F90D6
:1022D0006F905F904F903F902F9008958091A30151
:1022E0009091A4016091A5017091A6014091A70170
:1022F0005091A8012091A5013091A6010E94AB1C2C
:102300008091A3019091A4016091A5017091A60113
:102310004091A3015091A4012091A9013091AA01FB
:102320000E94AB1C8091A3019091A4016091A9012E
:102330007091AA014091A7015091A8012091A90193
:102340003091AA010E94AB1C8091A7019091A80135
:102350006091A5017091A6014091A7015091A8013B
:102360002091A9013091AA010C94AB1CCF92DF926D
:10237000EF92FF920F931F93CF93DF93C4E6D2E0C7
:1023800093E5C92ED12C8FE2E82EF12C1C2F0D2FB6
:10239000CE010E947804688179818A819B8120E046
:1023A00030E040E851E40E94851B88234CF48D8581
:1023B0009E85AF85B889B0588D879E87AF87B88BCB
:1023C0008885B601681B7109882777FD8095982F4D
:1023D0000E94BC1B9B01AC01688179818A819B8131
:1023E0000E946C1C18164CF48D859E85AF85B889AB
:1023F000B0588D879E87AF87B88B6C817D818E8129
:102400009F8120E030E040E85FE30E94851B882345
:102410004CF489899A89AB89BC89B058898B9A8B8D
:10242000AB8BBC8B8985B701681B7109882777FD49
:102430008095982F0E94BC1B9B01AC016C817D8113
:102440008E819F810E946C1C18164CF489899A8990
:10245000AB89BC89B058898B9A8BAB8BBC8B812F95
:10246000902F0E948C1F659683E0CC30D80709F02E
:102470008DCFDF91CF911F910F91FF90EF90DF9063
:10248000CF900895BF92CF92DF92EF92FF920F9379
:102490001F93CF93DF9380E090E0ACE3B2E48093AE
:1024A000470290934802A0934902B0934A0280E009
:1024B00090E0A0ECB1E480934B0290934C02A09387
:1024C0004D02B0934E0224E6E22E22E0F22ECC24FE
:1024D000DD24BB24B39420912A0230912B028091F9
:1024E000260290912702AC01C49EC001C59E900DAA
:1024F000D49E900D1124820F931F0E94FE200DE2A6
:1025000010E009C00E94FB206CE370E00E945420A0
:102510008C010E5E1F4FC8018497439798F3C6E164
:10252000D0E008C00E94FB206EE170E00E945420C1
:10253000EC012296CE010D970A97A0F3B8018827E7
:1025400077FD8095982F0E94BC1BF70160837183F3
:1025500082839383BE01882777FD8095982F0E9400
:10256000BC1BF7016483758386839783B2860894C6
:10257000C11CD11C45E150E0E40EF51E58E0C51623
:10258000D10409F0A8CFDF91CF911F910F91FF9057
:10259000EF90DF90CF90BF9008952F923F924F928F
:1025A0005F926F927F928F929F92AF92BF92CF92E3
:1025B000DF92EF92FF920F931F93DF93CF93CDB7EC
:1025C000DEB72C970FB6F894DEBF0FBECDBF64E622
:1025D000862E62E0962E340158E0A52EB12C42E3FF
:1025E000C42ED12CD3011496ED90FD900D911C9129
:1025F00017976D917D918D919C910E94891B8827E1
:1026000077FD8095982F0E94BC1B20914702309146
:1026100048024091490250914A020E94851B88233A
:10262000B1F5C801B7010E94891B882777FD809505
:10263000982F0E94BC1B20914B0230914C0240917C
:102640004D0250914E020E94851B882301F51ADF2E
:1026500080911E0290911F0297FF19C08091A101E5
:102660009091A20101979093A2018093A1011092F1
:102670001B0210921A021092190210921802B092C4
:10268000AC01A092AB01D0921F02C0921E02E5E104
:10269000F0E06E0E7F1EFCE06F16F3E07F0609F09F
:1026A000A1CF80911A0290911B02019709F0A3C05B
:1026B0008091320290913302A0913402B0913502A0
:1026C00089879A87AB87BC87BC01CD0120E030E0C9
:1026D00040E85FE3B5D76D837E838F839887409012
:1026E000360250903702609038027090390234E61A
:1026F000232E32E0332ED1011496AD90BD90CD90B3
:10270000DC9017976D917D918D919C910E94891B12
:10271000882777FD8095982F0E94BC1B7B018C0138
:102720002D813E814F8158850E946C1C18160CF03B
:1027300058C069857A858B859C8520E030E040E033
:1027400050E47FD79B01AC01C801B701DED78823D5
:102750000CF047C0C601B501DCD7882777FD80950E
:10276000982F0E94BC1B7B018C01C301B20120E0A9
:1027700030E040E85FE364D79B01AC01C801B701DA
:102780000E946C1C18166CF5C301B20120E030E009
:1027900040E050E456D79B01AC01C801B701B5D762
:1027A0008823FCF480E090E0A0E2B1ECF1018083AA
:1027B0009183A283B38384839583A683B783809117
:1027C0002802909129020296909329028093280270
:1027D0008091AB019091AC0101979093AC018093F3
:1027E000AB0185E190E0280E391E9CE0291693E0AC
:1027F000390609F080CF80919D0190919E011816B5
:1028000019060CF088C080910C0390910D03A091E3
:102810000E03B0910F0389839A83AB83BC834090EE
:102820001003509011036090120370901303D401B1
:102830001496AD90BD90CD90DC9017976D917D91E1
:102840008D919C9166D7882777FD8095982F94D796
:102850007B018C0129813A814B815C810E946C1C37
:1028600018160CF04EC069817A818B819C8120E022
:1028700030E040E251E4E5D69B01AC01C801B7016C
:1028800044D788230CF03DC0C601B50142D7882744
:1028900077FD8095982F70D77B018C01A301920161
:1028A0000E946C1C18166CF5C301B20120E030E0E8
:1028B00040E251E4C6D69B01AC01C801B70125D75F
:1028C0008823FCF480E090E0A0E2B1ECF401808386
:1028D0009183A283B38384839583A683B7838091F6
:1028E000280290912902029690932902809328024F
:1028F0008091AB019091AC0101979093AC018093D2
:10290000AB0185E190E0880E991E9CE0891693E06A
:10291000990609F08CCF2C960FB6F894DEBF0FBE47
:10292000CDBFCF91DF911F910F91FF90EF90DF907E
:10293000CF90BF90AF909F908F907F906F905F905F
:102940004F903F902F900895AF92BF92CF92DF9219
:10295000EF92FF920F931F93CF93DF938091180212
:1029600090911902892B09F0EDC080912C02909171
:102970002D02892B09F079C020919F013091A0018F
:102980008091260290912702AC01429FC001439F93
:10299000900D529F900D11240E94FE20CDE2D0E0B8
:1029A00011C00E94FB206CE370E00E945420EC01F7
:1029B000629680919F019091A00101969093A00151
:1029C00080939F01CE018497439758F306E110E06E
:1029D00012C00E94FB206EE170E00E9454208C0126
:1029E0000E5F1F4F80919F019091A00101969093DF
:1029F000A00180939F01C8010D970A9750F380E0D2
:102A000090E0A0E0B0E080933F0290934002A0935A
:102A10004102B09342028093430290934402A093F8
:102A20004502B0934602BE01882777FD8095982F16
:102A3000A3D6609332027093330280933402909352
:102A40003502B801882777FD8095982F95D6609339
:102A5000360270933702809338029093390281E0F6
:102A600090E090932D0280932C02A0904702B090AA
:102A70004802C0904902D0904A02E0903202F090A1
:102A800033020091340210913502C801B70120E0F1
:102A900030E040E85FE3D4D59B01AC01C601B5014D
:102AA0001BD718160CF04EC0C801B70120E030E06B
:102AB00040E050E4C6D59B01AC01C601B50125D666
:102AC00088230CF03FC0A0904B02B0904C02C09005
:102AD0004D02D0904E02E0903602F0903702009105
:102AE000380210913902C801B70120E030E040E817
:102AF0005FE3A6D59B01AC01C601B501EDD6181662
:102B00000CF5C801B70120E030E040E050E499D571
:102B10009B01AC01C601B501F8D588239CF421E0E6
:102B200030E030931902209318028091280290918E
:102B300029020396909329028093280230931B0266
:102B400020931A028091180290911902019709F0BE
:102B5000C2C0A0905402B0905502C0905602D090CE
:102B60005702C601B50120E030E040E85FE3CDD573
:102B70008823A1F48AEB91E090933E0280933D027A
:102B800060914702709148028091490290914A02F7
:102B900020E030E040E450E454D51CC0C601B5014B
:102BA00020E030E040E85FEBB0D5882359F58AEBB0
:102BB00091E090933E0280933D02609147027091B4
:102BC00048028091490290914A0220E030E040E4BE
:102BD00050E436D56093320270933302809334020E
:102BE0009093350280914B0290914C02A0914D023E
:102BF000B0914E028093360290933702A093380230
:102C0000B0933902E0905802F090590200915A02B4
:102C100010915B02C801B70120E030E040E85FE3BB
:102C200074D58823A1F487EB91E090933E028093C2
:102C30003D0260914B0270914C0280914D02909147
:102C40004E0220E030E040E450E4FBD41CC0C80158
:102C5000B70120E030E040E85FEB57D5882359F515
:102C600087EB91E090933E0280933D0260914B028E
:102C700070914C0280914D0290914E0220E030E024
:102C800040E450E4DDD460933602709337028093C1
:102C90003802909339028091470290914802A091A6
:102CA0004902B0914A028093320290933302A0937A
:102CB0003402B0933502A0923F02B0924002C0921B
:102CC0004102D0924202E0924302F0924402009309
:102CD000450210934602DF91CF911F910F91FF9013
:102CE000EF90DF90CF90BF90AF900895AF92BF92DA
:102CF000CF92DF92EF92FF920F931F93A090470223
:102D0000B0904802C0904902D0904A02E0900C0373
:102D1000F0900D0300910E0310910F03C801B7014D
:102D200020E030E040E85FE38BD49B01AC01C601BA
:102D3000B501D2D518160CF055C0C801B70120E076
:102D400030E040E050E47DD49B01AC01C601B50108
:102D5000DCD488230CF046C0A0904B02B0904C020B
:102D6000C0904D02D0904E02E0901003F0901103FD
:102D70000091120310911303C801B70120E030E065
:102D800040E85FE35DD49B01AC01C601B501A4D569
:102D9000181644F5C801B70120E030E040E050E4E7
:102DA00050D49B01AC01C601B501AFD48823D4F443
:102DB00082E090E090931D0280931C0280E090E0FE
:102DC000A0E2B1EC80930C0390930D03A0930E034B
:102DD000B0930F038093100390931103A0931203F9
:102DE000B093130380911C0290911D02029724F06E
:102DF0008FE664E043E196D780911C0290911D021A
:102E0000029761F580919B0190919C01099734F1A3
:102E10008091470290914802A0914902B0914A02E4
:102E200080930C0390930D03A0930E03B0930F03B4
:102E300080914B0290914C02A0914D02B0914E02B4
:102E40008093100390931103A0931203B093130384
:102E500081E090E090931D0280931C0280911C02FF
:102E600090911D02019709F0CDC080919B01909136
:102E70009C01892BD9F580EC91E090931803809305
:102E800017038AE0809314038093150360910C0369
:102E900070910D0380910E0390910F0320E030E0BC
:102EA00040E85FE3CDD360930C0370930D038093F0
:102EB0000E0390930F0360911003709111038091A2
:102EC00012039091130320E030E040E85FE3B8D3B1
:102ED0006093100370931103809312039093130374
:102EE00085E090E090939E0180939D0180919D01EB
:102EF00090919E01892B09F085C010921D021092BD
:102F00001C028DEB91E0909318038093170383E0EC
:102F1000809314038093150340912A0250912B0251
:102F200020919F013091A00180912602909127026B
:102F3000BC01629FC001639F900D729F900D112490
:102F4000840F951F0E94FE208DE290E090939801DF
:102F50008093970186E190E090939A018093990184
:102F60000BC00E94FB206CE370E00E94542042964C
:102F70009093980180939701809197019091980187
:102F8000849794F08091970190919801C7974CF3A2
:102F90000BC00E94FB206EE170E00E94542002965C
:102FA00090939A01809399018091990190919A014F
:102FB0000D9734F08091990190919A0147974CF3C5
:102FC0006091970170919801882777FD8095982FDF
:102FD000D3D360930C0370930D0380930E039093EF
:102FE0000F036091990170919A01882777FD809570
:102FF000982FC2D360931003709311038093120330
:10300000909313031F910F91FF90EF90DF90CF905B
:10301000BF90AF9008951F920F920FB60F92112498
:10302000FF920F931F932F933F934F935F936F9351
:103030007F938F939F93AF93BF93EF93FF93DF9310
:10304000CF93CDB7DEB72F97DEBFCDBF80912402DF
:1030500090912502892B09F00DC180912E0290914B
:103060002F02019709F006C1C2D6A89A80912A02C0
:1030700090912B02019690932B0280932A028091CB
:103080002A0290912B0203970CF49EC080919B0121
:1030900090919C01019790939C0180939B0180915A
:1030A0009D0190919E01019790939E0180939D01B7
:1030B00017D48091260290912702019690932702BF
:1030C000809326028091260290912702449769F40A
:1030D0008091280290912902019690932902809371
:1030E0002802109227021092260200E010E0FF242E
:1030F0000BC00F5F1F4F80E264E04F2D13D64F2DA2
:1031000046508AE264E00ED68091A1019091A2011E
:1031100026E0F20E0817190764F3809121039091BD
:103120002203019711F48FE607C08091210390914B
:103130002203892B21F480E264E043E1F3D58091FE
:10314000180290911902019711F48CE707C0809141
:10315000180290911902892B21F480E264E04CE17D
:10316000E1D58EE060E04EE02FE2F5D383E560E04C
:1031700043E52FE2F0D38EE060E043E520E0EBD3BF
:103180008EE06FE243E52FE2E6D3A8D810922B023F
:1031900010922A028091A1019091A201181619069D
:1031A00034F081E090E09093250280932402809196
:1031B000AB019091AC011816190634F082E090E052
:1031C000909325028093240287E492E00E94780481
:1031D000BBDB8CDD04E612E0C8010E94A40B0B5E91
:1031E0001F4F83E00C301807B9F70E9447080E9470
:1031F000D40D87E492E00E94420587E492E08CD6E9
:1032000082E392E089D68CE093E086D60E944B0F51
:1032100080911E0290911F02019790931F0280934C
:103220001E02A4D8BAD9209128023091290200D0D8
:1032300000D000D0EDB7FEB731968E010F5F1F4F63
:10324000ADB7BEB712961C930E93119780E091E034
:103250009383828335832483DCD78DB79EB706960C
:103260000FB6F8949EBF0FBE8DBFC80160E047E265
:10327000A9D5BDD52F96DEBFCDBFCF91DF91FF91F0
:10328000EF91BF91AF919F918F917F916F915F91DE
:103290004F913F912F911F910F91FF900F900FBE73
:1032A0000F901F90189584B18C6084B984B18C7F85
:1032B00084B915B88FE3CDD513D399C5BF92CF92FA
:1032C000DF92EF92FF920F931F93CF93DF9380E8EB
:1032D0008093610011E010936100E5DF0E946404B7
:1032E0003ED10E945104FCD287E492E06FE248E1B3
:1032F00023E003E0A1EBEA2EA1E0FA2EDDD5109346
:10330000510280E090E0A0E8BFEB809354029093DC
:103310005502A0935602B093570287E492E0FCD581
:10332000C4E6D2E0CC24DD24BB24B39480912002F7
:103330009091210220919F013091A001AC01249F26
:10334000C001259F900D349F900D11249C012C9D50
:10335000C0012D9D900D3C9D900D11244FD70DE285
:1033600010E010C048D766E470E09ED68C010E5E77
:103370001F4F80919F019091A00101969093A00111
:1033800080939F01C8018497439760F346E150E022
:1033900010C031D76EE170E087D6AC014E5F5F4F51
:1033A00080919F019091A00101969093A00180933C
:1033B0009F01CA010D970A9760F38091AD0190912A
:1033C000AE01A091AF01B091B001B0588093AD01B2
:1033D0009093AE01A093AF01B093B001CE01602FE6
:1033E00023E003E0F4EBEF2EF1E0FF2E65D5BA8683
:1033F0008091AD019091AE01A091AF01B091B0016B
:10340000B0588D879E87AF87B88B8091AD01909122
:10341000AE01A091AF01B091B001898B9A8BAB8BBB
:10342000BC8BCE0179D580919F019091A00101962E
:103430009093A00180939F010894C11CD11C6596B4
:1034400038E0C316D10409F071CF60914702709142
:1034500048028091490290914A0260D17B018C011F
:1034600060914B0270914C0280914D0290914E02FE
:1034700020E030E040E450E4E3D050D19B01AC01C7
:1034800082E392E06E2D422F23E003E0E7EBEE2E85
:10349000E1E0FE2E11D5B0923C0280915402909151
:1034A0005502A0915602B091570280933F0290932B
:1034B0004002A0934102B093420280915802909141
:1034C0005902A0915A02B0915B02809343029093FB
:1034D0004402A0934502B093460282E392E01CD5D9
:1034E00060919701709198014091990150919A01D2
:1034F0008CE093E023E07DEBE72E71E0F72EDCD447
:10350000B09216038CE093E007D58091240290914D
:103510002502892BD1F3E4D18091240290912502D8
:10352000019729F483E091E061E143E14BD480917C
:10353000240290912502029729F48EE091E061E146
:1035400043E140D454D480E090E0DF91CF911F91CB
:103550000F91FF90EF90DF90CF90BF900895109261
:103560002F0210922E0281E090E090930702809348
:1035700006021092310210923002B2D188EC91E032
:1035800069E140E01FD48FEC91E060E04AE01AD49A
:103590008AE260E044E1C6D380EE91E066E044E177
:1035A00011D485EE91E068E244E10CD48AEE91E01A
:1035B00060E04EE107D487EF91E060E048E202D49A
:1035C00016D48091300290913102892BD1F388D1A9
:1035D00080E092E068E244E1F5D309D480E197E22B
:1035E00028EC30E0F9013197F1F70197D9F778D15C
:1035F00082E092E068E244E1E5D3F9D380E197E22A
:1036000028EC30E0F9013197F1F70197D9F768D14B
:1036100084E092E068E244E1D5D3E9D380E197E227
:1036200028EC30E0F9013197F1F70197D9F781E003
:1036300090E090932F0280932E0280E090E0089516
:103640005058BB27AA270ED00DC1FED030F003D1B1
:1036500020F031F49F3F11F41EF4F3C00EF4E09516
:10366000E7FBE9C0E92F0FD180F3BA1762077307B0
:103670008407950718F071F49EF527C10EF4E095C4
:103680000B2EBA2FA02D0B01B90190010C01CA011C
:10369000A0011124FF27591B99F0593F50F4503EC7
:1036A00068F11A16F040A22F232F342F4427585FB9
:1036B000F3CF469537952795A795F0405395C9F7D1
:1036C0007EF41F16BA0B620B730B840BBAF0915089
:1036D000A1F0FF0FBB1F661F771F881FC2F70EC028
:1036E000BA0F621F731F841F48F4879577956795FB
:1036F000B795F7959E3F08F0B3CF9395880F08F0E4
:103700009927EE0F97958795089571D008F481E079
:10371000089504D06894B111D9C00895BCD088F040
:103720009F5790F0B92F9927B751A0F0D1F0660FAD
:10373000771F881F991F1AF0BA95C9F712C0B130C8
:1037400081F0C3D0B1E00895C0C0672F782F8827DB
:10375000B85F39F0B93FCCF3869577956795B39507
:10376000D9F73EF490958095709561957F4F8F4F76
:103770009F4F0895E89409C097FB3EF4909580957B
:10378000709561957F4F8F4F9F4F9923A9F0F92F27
:1037900096E9BB279395F695879577956795B795A5
:1037A000F111F8CFFAF4BB0F11F460FF1BC06F5F8B
:1037B0007F4F8F4F9F4F16C0882311F096E911C09D
:1037C000772321F09EE8872F762F05C0662371F0BE
:1037D00096E8862F70E060E02AF09A95660F771FD2
:1037E000881FDAF7880F9695879597F90895990FAE
:1037F0000008550FAA0BE0E8FEEF16161706E807BB
:10380000F907C0F012161306E407F50798F0621BDB
:10381000730B840B950B39F40A2661F0232B242BB0
:10382000252B21F408950A2609F4A140A6958FEFCF
:10383000811D811D089597F99F6780E870E060E021
:1038400008959FEF80EC089500240A941616170639
:1038500018060906089500240A9412161306140681
:1038600005060895092E0394000C11F4882352F0E4
:10387000BB0F40F4BF2B11F460FF04C06F5F7F4F9C
:103880008F4F9F4F089557FD9058440F551F59F083
:103890005F3F71F04795880F97FB991F61F09F3F3D
:1038A00079F087950895121613061406551FF2CF66
:1038B0004695F1DF08C0161617061806991FF1CFB6
:1038C00086957105610508940895E894BB276627DD
:1038D0007727CB0197F908958ADF08F48FEF0895D1
:1038E000E5E2F3E0119285E0ED31F807D9F70895AC
:1038F000843580F5603370F5262F2695269526951C
:10390000677090E0442399F0E4E52E9FF0011124C4
:10391000E80FF91FEB5DFC4F81E090E002C0880FDB
:10392000991F6A95E2F72081282B20830895E4E50A
:103930002E9FF0011124E80FF91FEB5DFC4F81E091
:1039400090E002C0880F991F6A95E2F78095208168
:103950002823208308952F923F924F925F926F9277
:103960007F928F929F92AF92BF92CF92DF92EF920F
:10397000FF920F931F93DF93CF93CDB7DEB7669778
:103980000FB6F894DEBF0FBECDBFC82ED62E498726
:103990002A87841759F4162F05C08C2D612F41E01A
:1039A000A7DF1F5F2A852117C0F7A3C13A856317D8
:1039B00059F4182F05C0812F6D2D41E099DF1F5F4D
:1039C00049854117C0F795C15A85652F70E080E0A1
:1039D00090E0D0DE7B018C018D2D90E09C878B8761
:1039E000FC01BF01882777FD8095982FC5DE9B01DC
:1039F000AC01C801B70124DE1B012C01F9856F2F32
:103A000070E080E090E0B6DE7B018C01AC2CBB2442
:103A1000B501882777FD8095982FAEDE9B01AC011C
:103A2000C801B7010DDE3B014C01C201B101A40187
:103A300093010E945B027B018C012985C21608F06C
:103A400038C020E030E040E85FE346DF181624F499
:103A500071E0C72ED12C37C1C801B70120E030E09A
:103A600040E85FE352DE181664F0C801B70120E0B9
:103A700030E040E050E030DF18161CF4CC24DD24A8
:103A800050C0C801B70120E030E040E050E03DDE2A
:103A900018160CF411C1C801B70120E030E040E86D
:103AA0005FEB1ADF18160CF007C167E0C62ED12CA9
:103AB00038C020E030E040E85FE30EDF181624F461
:103AC00055E0C52ED12CFFC0C801B70120E030E081
:103AD00040E85FE31ADE18166CF0C801B70120E079
:103AE00030E040E050E0F8DE181624F444E0C42E44
:103AF000D12C17C0C801B70120E030E040E050E011
:103B000004DE18160CF4DCC0C801B70120E030E078
:103B100040E85FEBE1DE18160CF0D2C033E0C32EB4
:103B2000D12C4B855C855A834983BE82AD829985B1
:103B3000892F90E09C838B8317012801E1E0F0E05E
:103B4000F887EF83F7E0CF16D10428F423E0C216FC
:103B5000D10440F404C037E0C316D10429F481E055
:103B600090E002C08FEF9FEFAD80BE800F2EF0E09F
:103B70006F2EF0E07F2EF0E08F2EF0E09F2EF02DE4
:103B8000A201910150582D873E874F87588B9C0189
:103B9000442737FD4095542F298B3A8B4B8B5C8BF8
:103BA0007AC04F815885452B19F08A2D698102C052
:103BB00089816A2D41E09CDEC201B10120E030E044
:103BC00040E050E089DE88231CF0A201910104C08E
:103BD0002D853E854F855889C401B30132DD3B01F7
:103BE0004C0120E030E040E05FE376DE18160CF098
:103BF00044C069897A898B899C89BEDD9B01AC01AF
:103C0000C201B1010E9464017B018C011E8A1D8AE0
:103C100020E030E040E050E05FDE181624F481E060
:103C200090E09E8B8D8BCC24DD24C801B70120E071
:103C300030E040E050E069DD88231CF421E0C22E32
:103C4000D12CED89FE89EC19FD09319739F42981D0
:103C50003A812F5F3F4F3A83298306C049815A81B9
:103C6000415050405A834983C401B30120E030E001
:103C700040E85FE3E5DC3B014C018B819C81ED81F9
:103C8000FE81E817F90720F40894A11CB11C03C0B9
:103C90000894A108B1082B813C814D815E814217B7
:103CA000530720F42A153B0520F17BCF8B819C81A3
:103CB000A816B906F0F075CF96E0C92ED12C03C036
:103CC00082E0C82ED12CC401B301A20191010E944F
:103CD0005B021B012C01BA82A982EB85FC85FE8365
:103CE000ED833A85232F30E03C832B8318861F8297
:103CF00029CF66960FB6F894DEBF0FBECDBFCF9129
:103D0000DF911F910F91FF90EF90DF90CF90BF90C8
:103D1000AF909F908F907F906F905F904F903F906B
:103D20002F9008958F929F92AF92BF92CF92DF9281
:103D3000EF92FF920F931F93CF93DF93D62EC42E53
:103D400095E0899FC00111248C01045F1F4FF1E0B1
:103D50008F2E912CE1E1AE2EE0E0BE2EA80EB91E12
:103D60001DC06C2D6C0FA4010C2E02C0440F551FFA
:103D70000A94E2F74E215F210C2E02C0559547951B
:103D80000A94E2F78D2DB4DD2196C830D10549F7AC
:103D90000F5F1F4FD3940A151B0539F0C0E0D0E028
:103DA000F8018491E82EFF24DCCFDF91CF911F91A1
:103DB0000F91FF90EF90DF90CF90BF90AF909F90CA
:103DC0008F9008950F931F93CF93DF93EC01162FDD
:103DD000042F05C0612F402FA5DF21961B5F88812E
:103DE0008823C1F7DF91CF911F910F910895CF9351
:103DF000DF9380E060E055D0C5E2D3E081E06991D7
:103E000007D085E0CD31D807C9F7DF91CF9108956C
:103E100095B18295880F807E9F7D982B95B95F988C
:103E200027E030E070E08F98CB01022E02C095951C
:103E300087950A94E2F780FF02C02E9A01C02E985F
:103E40008F9A215030408FEF2F3F380761F75F9AEC
:103E500008951F93182F579A249A259A269A879A7D
:103E60002C985F9A2C9A80E061E2D2DF106880E0A3
:103E7000612FCEDF80E064E0CBDF80E063E1C8DF6C
:103E800080E06CE0C5DF80E060E2C2DF80E06CE0F3
:103E9000BFDF80E060E4BCDF80E060E8B9DF1F9155
:103EA00008951F93182F606480E0B2DF106880E0EF
:103EB000612FAEDF1F9108958F929F92AF92BF92B4
:103EC000CF92DF92EF92FF920F931F934C01A42E9B
:103ED000122F70E080E090E04DDCF401608371838C
:103EE00082839383BB24CC24DD24C601B50142DC4C
:103EF000F401648375838683978310870187F48632
:103F0000E3861F910F91FF90EF90DF90CF90BF90CD
:103F1000AF909F908F9008952F923F924F925F9213
:103F20007F928F929F92AF92BF92CF92DF92EF9249
:103F3000FF920F931F93DF93CF9300D000D0CDB7A4
:103F4000DEB72C01DC011A968C91882309F496C007
:103F5000222433241A82198287C0E981FA81BF01A1
:103F6000882777FD8095982F07DCD20114962D9134
:103F70003D914D915C91179764DB5B016C0120E0F2
:103F800030E040E050E0C1DB87FD68C0C601B5010C
:103F900020E030E040E452E49FDC87FF6FC01C82E9
:103FA0001B8245C0D2011B96ED91FC911C97E20D3E
:103FB000F31D7080EB81FC81BF01882777FD809520
:103FC000982FDADBD2012D913D914D915C9139DB37
:103FD0007B018C0120E030E040E050E07DDC882374
:103FE000CCF0C801B70120E030E048EA52E48DDBB4
:103FF000882384F4782071F0C801B7018FDB7B013E
:104000008C01C601B5018ADB9B01AC018E2D622FAC
:1040100041E06EDCEB81FC813196FC83EB83CF01C8
:1040200087709070892B39F40894211C311C90E81A
:10403000892E912C02C095948794D20118968C9168
:1040400090E0EB81FC81E817F9070CF4ABCF8770A7
:104050009070892B19F00894211C311C29813A8118
:104060002F5F3F4F3A832983D20119968C9190E0BC
:10407000E981FA81E817F9070CF46FCF0F900F90E0
:104080000F900F90CF91DF911F910F91FF90EF90C4
:10409000DF90CF90BF90AF909F908F907F905F9078
:1040A0004F903F902F90089597FB092E07260AD036
:1040B00077FD04D00CD006D000201AF470956195DD
:1040C0007F4F0895F6F7909581959F4F0895AA1B0D
:1040D000BB1B51E107C0AA1FBB1FA617B70710F0F3
:1040E000A61BB70B881F991F5A95A9F78095909525
:1040F000BC01CD0108952F923F924F925F926F9233
:104100007F928F929F92AF92BF92CF92DF92EF9267
:10411000FF920F931F93CF93DF93CDB7DEB7CA1BE8
:10412000DB0B0FB6F894DEBF0FBECDBF09942A8813
:10413000398848885F846E847D848C849B84AA84BB
:10414000B984C884DF80EE80FD800C811B81AA8148
:10415000B981CE0FD11D0FB6F894DEBF0FBECDBF13
:10416000ED010895A0E0B0E0E7EBF0E2CCCFEC0188
:10417000A880B980CA80DB80A114B104C104D10435
:1041800041F484E2A82E89EDB82E8BE5C82E87E095
:10419000D82EC601B5012DE133EF41E050E0E7D262
:1041A00027EA31E440E050E0C3D27B018C01C60134
:1041B000B5012DE133EF41E050E0D9D2CA01B90198
:1041C0002CEE34EF4FEF5FEFB3D26E0D7F1D801FEB
:1041D000911F97FF04C061507040804090486883F1
:1041E00079838A839B839B013F77C901CDB7DEB773
:1041F000EAE0A5CFB7CF80E192E0B4CFA0E0B0E095
:104200008093100290931102A0931202B0931302B4
:104210000895AEE0B0E0EEE0F1E27BCF0D891E89BB
:1042200086E08C831A8309838FEF9FE79E838D83BB
:104230009E01275E3F4FCE0101966F89788DA901BF
:1042400009D02F813885020F131FF80110822E9696
:10425000E4E07BCFABE0B0E0EFE2F1E24CCF3C0139
:104260002B015A01FC0117821682838181FD03C054
:104270006FEF7FEFB9C19AE0892E1E010894211CCF
:10428000311CF3012381F20123FD859123FF8191EC
:104290002F01882309F4A5C1853239F423FD8591C6
:1042A00023FF81912F01853221F490E0B301B6D133
:1042B000E8CF982FFF24EE249924FFE1FF15D0F0DA
:1042C0009B3269F09C3228F4903259F0933291F489
:1042D0000EC09D3249F0903369F441E024C052E0B1
:1042E000F52A84E0F82A28C098E0F92A25C0E0E100
:1042F000FE2A22C0F7FC29C0892F80538A3070F42F
:10430000F6FE05C0989C902C1124980E15C0E89CD0
:10431000E02C1124E80EF0E2FF2A0EC09E3229F4B0
:10432000F6FC5FC140E4F42A07C09C3619F450E85B
:10433000F52A02C0983649F4F20123FD959123FF36
:1043400091912F01992309F0B8CF892F855483309B
:1043500018F08052833038F444E050E0A40EB51ECB
:104360005FE359830FC0933631F0933779F093357B
:1043700009F052C01FC0F5018081898342E050E0FE
:10438000A40EB51E610101E010E011C0F501C0806E
:10439000D180F6FC03C06FEF7FEF02C0692D70E0A3
:1043A00042E050E0A40EB51EC6012DD18C015FE79E
:1043B000F52213C0F501C080D180F6FC03C06FEF79
:1043C0007FEF02C0692D70E042E050E0A40EB51E00
:1043D000C6010ED18C0150E8F52AF3FE06C018C0C4
:1043E00080E290E0B3011AD1EA948E2D90E0081794
:1043F0001907B0F30DC0F601F7FC8591F7FE819126
:104400006F0190E0B3010AD1E110EA94015010402D
:104410000115110581F7E2C0943611F0993661F566
:10442000F7FE08C0F501208131814281538184E08B
:1044300090E00AC0F501808191819C01442737FDFD
:104440004095542F82E090E0A80EB91E9FE6F92215
:1044500057FF09C050954095309521953F4F4F4FDC
:104460005F4FE0E8FE2ACA01B901A1012AE030E06D
:1044700001D1D82ED2183FC0953729F41F2D1F7EA9
:104480002AE030E01DC01F2D197F9F3661F0903764
:1044900020F4983509F0A5C00FC0903739F098374F
:1044A00009F09FC004C028E030E00AC0106114FD8C
:1044B000146020E130E004C014FD166020E132E019
:1044C00017FF08C0F501608171818281938144E00A
:1044D00050E008C0F50180819181BC0180E090E04E
:1044E00042E050E0A40EB51EA101C4D0D82ED218CF
:1044F0008FE7F82EF122F6FE0BC05EEFF522D914FD
:1045000038F4F4FE07C0F2FC05C08FEEF82202C0BA
:104510001D2D01C0192DF4FE0DC0FE01ED0DF11D84
:104520008081803319F499EEF92208C01F5FF2FEF2
:1045300005C003C08F2D867809F01F5F0F2DF3FC97
:1045400013C0F0FE0EC01E1510F09D2C0AC09D2C4D
:104550009E0C911A1E2D05C080E290E0B3015ED042
:104560001F5F1E15C8F304C01E1510F4E11A01C028
:10457000EE2404FF0EC080E390E0B3014FD002FFB1
:104580001BC001FD03C088E790E00EC088E590E005
:104590000BC0802F867881F001FF02C08BE201C042
:1045A00080E2F7FC8DE290E0B30138D005C080E3F3
:1045B00090E0B30133D09A94D914C8F3DA94F1019E
:1045C000ED0DF11D808190E0B30128D0DD20B1F721
:1045D00005C080E290E0B30121D0EA94EE20C9F753
:1045E00050CEF30166817781CB012B96E2E19FCD1E
:1045F000FC010590615070400110D8F780959095AE
:104600008E0F9F1F0895FC016150704001900110B2
:10461000D8F7809590958E0F9F1F08950F931F9345
:10462000CF93DF938C01EB018B8181FF1BC082FF55
:104630000DC02E813F818C819D812817390764F43C
:10464000E881F9810193F983E88306C0E885F9855B
:10465000802F0995892B31F48E819F8101969F834C
:104660008E8302C00FEF1FEFC801DF91CF911F9122
:104670000F910895FA01AA27283051F1203181F1D4
:10468000E8946F936E7F6E5F7F4F8F4F9F4FAF4F5A
:10469000B1E03ED0B4E03CD0670F781F891F9A1F6D
:1046A000A11D680F791F8A1F911DA11D6A0F711D21
:1046B000811D911DA11D20D009F468943F912AE02D
:1046C000269F11243019305D3193DEF6CF01089515
:1046D000462F4770405D4193B3E00FD0C9F7F6CF46
:1046E000462F4F70405D4A3318F0495D31FD40520E
:1046F000419302D0A9F7EACFB4E0A69597958795A4
:1047000077956795BA95C9F7009761057105089582
:104710009B01AC010A2E069457954795379527952E
:10472000BA95C9F7620F731F841F951FA01D0895C6
:10473000629FD001739FF001829FE00DF11D649F85
:10474000E00DF11D929FF00D839FF00D749FF00D11
:10475000659FF00D9927729FB00DE11DF91F639FB2
:10476000B00DE11DF91FBD01CF011124089597FB84
:10477000092E05260ED057FD04D014D00AD0001CF7
:1047800038F450954095309521953F4F4F4F5F4FEE
:104790000895F6F790958095709561957F4F8F4FAE
:1047A0009F4F0895A1E21A2EAA1BBB1BFD010DC04D
:1047B000AA1FBB1FEE1FFF1FA217B307E407F507D1
:1047C00020F0A21BB30BE40BF50B661F771F881FAD
:1047D000991F1A9469F760957095809590959B0143
:0C47E000AC01BD01CF010895F894FFCF9B
:1047EC0025640047414D45204F5645522100594FF5
:1047FC00552057494E2100000098410000A041006F
:10480C000018420000A041000018420000A0410026
:10481C000018420000244200002C420000F041002D
:10482C000070420000F04100009242000020410064
:10483C0000A64200002041000092420000A041006E
:10484C0000A6420000A041000092420000F041008E
:10485C0000A6420000F041000092420000204200FD
:10486C0000A64200002042000050420000204200FE
:10487C00008242000020421E001E00FFFF050001C6
:10488C000003001E00050032000F000800CDCCCC48
:10489C003DE0A0E0E0E0E0E040E0A0E0A040E0E0AF
:1048AC004FFEDE7C7EFA7F2E5A6F6D626965004684
:1048BC00656172207468652048756D616E732100A6
:1048CC0045617379004861726400456C696F7420AE
:1048DC0057696C736F6E006E393137353530340073
:1048EC003300320031000100000000000000000025
:0448FC0001000000B7
:00000001FF
